:020000040800F2
:100000000028002009030008390200084502000802
:10001000510200085D02000869020008310300086F
:10002000310300083103000831030008750200089D
:100030003103000831030008810200088D02000826
:100040009D020008AD020008BD020008310300084F
:1000500031030008310300083103000831030008B0
:1000600031030008310300083103000831030008A0
:100070003103000831030008310300083103000890
:100080003103000831030008310300083103000880
:100090003103000831030008310300083103000870
:1000A0003103000831030008310300083103000860
:1000B0003103000831030008310300083103000850
:1000C0003103000831030008310300083103000840
:1000D0003103000831030008310300083103000830
:1000E0003103000831030008310300083103000820
:1000F0003103000831030008310300083103000810
:1001000031030008310300083103000831030008FF
:1001100031030008310300083103000831030008EF
:1001200031030008310300083103000831030008DF
:1001300031030008310300083103000831030008CF
:1001400031030008310300083103000831030008BF
:1001500080B400AF074B084A5A60064B00229A60F1
:10016000044B1B68034A43F00703136000BFBD46FE
:1001700080BC704710E000E0FF083D0080B586B00D
:1001800000AF2B4B98472B4BD3F800337B61FF23F9
:100190003B613B69DB437A6913407B613B6903F058
:1001A00003037A6913437B61224A7B69C2F80033F7
:1001B000204BD3F80033FB60FF23BB60BB681B02FE
:1001C000DB43FA681340FB60BB681B0203F48073D7
:1001D000FA681343FB60174AFB68C2F80033154BFB
:1001E000D3F800337B60FF233B603B681B04DB4399
:1001F0007A6813407B603B681B0403F400337A6821
:1002000013437B600B4A7B68C2F80033094B1B68C1
:10021000084A43F007031360064BD3F80031054A40
:1002200043F00703C2F80031FFF792FFFEE700BF7B
:10023000CD02000800E100E080B400AF00BFBD4681
:1002400080BC704780B400AF00BFBD4680BC704723
:1002500080B400AF00BFBD4680BC704780B400AF23
:1002600000BFBD4680BC704780B400AF00BFBD4634
:1002700080BC704780B400AF00BFBD4680BC7047F3
:1002800080B400AF00BFBD4680BC704780B500AFF2
:10029000014B984700BF80BDD902000880B500AF70
:1002A000014B984700BF80BDE502000880B500AF54
:1002B000014B984700BF80BDF102000880B500AF38
:1002C000014B984700BF80BDFD02000880B400AF1D
:1002D00000BFBD4680BC704780B400AF00BFBD46C4
:1002E00080BC704780B400AF00BFBD4680BC704783
:1002F00080B400AF00BFBD4680BC704780B400AF83
:0803000000BFBD4680BC704740
:1003080006480749074A914205D050F8043B41F88E
:10031800043B9142F9D3FFF72DFF00004903000881
:0803280000000020130000207A
:02033000FEE7E6
:10033400564D413A464C4153482C204C4D413A4687
:050344004C415348008C
:10034900564D413A52414D2C204C4D413A464C4173
:0303590053480006
:04000005080001509E
:00000001FF
